{
  "contractName": "ApplicationRegistry",
  "abi": [
    {
      "inputs": [],
      "stateMutability": "nonpayable",
      "type": "constructor"
    },
    {
      "anonymous": false,
      "inputs": [
        {
          "indexed": true,
          "internalType": "string",
          "name": "appId",
          "type": "string"
        },
        {
          "indexed": false,
          "internalType": "string",
          "name": "name",
          "type": "string"
        },
        {
          "indexed": false,
          "internalType": "string",
          "name": "cid",
          "type": "string"
        }
      ],
      "name": "ApplicationCreated",
      "type": "event"
    },
    {
      "inputs": [
        {
          "internalType": "uint256",
          "name": "",
          "type": "uint256"
        }
      ],
      "name": "applications",
      "outputs": [
        {
          "internalType": "string",
          "name": "name",
          "type": "string"
        },
        {
          "internalType": "string",
          "name": "appId",
          "type": "string"
        },
        {
          "internalType": "string",
          "name": "cid",
          "type": "string"
        }
      ],
      "stateMutability": "view",
      "type": "function",
      "constant": true
    },
    {
      "inputs": [
        {
          "internalType": "string",
          "name": "",
          "type": "string"
        }
      ],
      "name": "applicationsByAppId",
      "outputs": [
        {
          "internalType": "string",
          "name": "name",
          "type": "string"
        },
        {
          "internalType": "string",
          "name": "appId",
          "type": "string"
        },
        {
          "internalType": "string",
          "name": "cid",
          "type": "string"
        }
      ],
      "stateMutability": "view",
      "type": "function",
      "constant": true
    },
    {
      "inputs": [
        {
          "internalType": "string",
          "name": "",
          "type": "string"
        }
      ],
      "name": "applicationsByCid",
      "outputs": [
        {
          "internalType": "string",
          "name": "name",
          "type": "string"
        },
        {
          "internalType": "string",
          "name": "appId",
          "type": "string"
        },
        {
          "internalType": "string",
          "name": "cid",
          "type": "string"
        }
      ],
      "stateMutability": "view",
      "type": "function",
      "constant": true
    },
    {
      "inputs": [],
      "name": "nextId",
      "outputs": [
        {
          "internalType": "uint256",
          "name": "",
          "type": "uint256"
        }
      ],
      "stateMutability": "view",
      "type": "function",
      "constant": true
    },
    {
      "inputs": [
        {
          "internalType": "string",
          "name": "_name",
          "type": "string"
        },
        {
          "internalType": "string",
          "name": "_appId",
          "type": "string"
        },
        {
          "internalType": "string",
          "name": "_cid",
          "type": "string"
        }
      ],
      "name": "createApplication",
      "outputs": [],
      "stateMutability": "nonpayable",
      "type": "function"
    },
    {
      "inputs": [
        {
          "internalType": "string",
          "name": "_appId",
          "type": "string"
        },
        {
          "internalType": "string",
          "name": "_name",
          "type": "string"
        }
      ],
      "name": "getApplicationByAppIdAndName",
      "outputs": [
        {
          "internalType": "string",
          "name": "",
          "type": "string"
        },
        {
          "internalType": "string",
          "name": "",
          "type": "string"
        },
        {
          "internalType": "string",
          "name": "",
          "type": "string"
        }
      ],
      "stateMutability": "view",
      "type": "function",
      "constant": true
    },
    {
      "inputs": [],
      "name": "getAllApplications",
      "outputs": [
        {
          "internalType": "string[]",
          "name": "",
          "type": "string[]"
        },
        {
          "internalType": "string[]",
          "name": "",
          "type": "string[]"
        },
        {
          "internalType": "string[]",
          "name": "",
          "type": "string[]"
        }
      ],
      "stateMutability": "view",
      "type": "function",
      "constant": true
    }
  ],
  "bytecode": "0x608060405234801561001057600080fd5b50600160038190555061186c806100286000396000f3fe608060405234801561001057600080fd5b506004361061007d5760003560e01c806381cdbb151161005b57806381cdbb15146100f2578063938019a514610124578063dfefadff14610140578063e0ea9d04146101725761007d565b80632b86f86314610082578063501bc554146100b457806361b8ce8c146100d4575b600080fd5b61009c600480360381019061009791906111cd565b6101a4565b6040516100ab9392919061129e565b60405180910390f35b6100bc61037c565b6040516100cb939291906113f6565b60405180910390f35b6100dc61071c565b6040516100e9919061145b565b60405180910390f35b61010c60048036038101906101079190611476565b610722565b60405161011b9392919061129e565b60405180910390f35b61013e600480360381019061013991906114ee565b610a3b565b005b61015a600480360381019061015591906115c1565b610c26565b6040516101699392919061129e565b60405180910390f35b61018c600480360381019061018791906111cd565b610df8565b60405161019b9392919061129e565b60405180910390f35b6002818051602081018201805184825260208301602085012081835280955050505050506000915090508060000180546101dd9061161d565b80601f01602080910402602001604051908101604052809291908181526020018280546102099061161d565b80156102565780601f1061022b57610100808354040283529160200191610256565b820191906000526020600020905b81548152906001019060200180831161023957829003601f168201915b50505050509080600101805461026b9061161d565b80601f01602080910402602001604051908101604052809291908181526020018280546102979061161d565b80156102e45780601f106102b9576101008083540402835291602001916102e4565b820191906000526020600020905b8154815290600101906020018083116102c757829003601f168201915b5050505050908060020180546102f99061161d565b80601f01602080910402602001604051908101604052809291908181526020018280546103259061161d565b80156103725780601f1061034757610100808354040283529160200191610372565b820191906000526020600020905b81548152906001019060200180831161035557829003601f168201915b5050505050905083565b60608060606000808054905067ffffffffffffffff8111156103a1576103a06110a2565b5b6040519080825280602002602001820160405280156103d457816020015b60608152602001906001900390816103bf5790505b5090506000808054905067ffffffffffffffff8111156103f7576103f66110a2565b5b60405190808252806020026020018201604052801561042a57816020015b60608152602001906001900390816104155790505b5090506000808054905067ffffffffffffffff81111561044d5761044c6110a2565b5b60405190808252806020026020018201604052801561048057816020015b606081526020019060019003908161046b5790505b50905060005b60008054905081101561070a57600081815481106104a7576104a661164f565b5b906000526020600020906003020160000180546104c39061161d565b80601f01602080910402602001604051908101604052809291908181526020018280546104ef9061161d565b801561053c5780601f106105115761010080835404028352916020019161053c565b820191906000526020600020905b81548152906001019060200180831161051f57829003601f168201915b50505050508482815181106105545761055361164f565b5b6020026020010181905250600081815481106105735761057261164f565b5b9060005260206000209060030201600101805461058f9061161d565b80601f01602080910402602001604051908101604052809291908181526020018280546105bb9061161d565b80156106085780601f106105dd57610100808354040283529160200191610608565b820191906000526020600020905b8154815290600101906020018083116105eb57829003601f168201915b50505050508382815181106106205761061f61164f565b5b60200260200101819052506000818154811061063f5761063e61164f565b5b9060005260206000209060030201600201805461065b9061161d565b80601f01602080910402602001604051908101604052809291908181526020018280546106879061161d565b80156106d45780601f106106a9576101008083540402835291602001916106d4565b820191906000526020600020905b8154815290600101906020018083116106b757829003601f168201915b50505050508282815181106106ec576106eb61164f565b5b60200260200101819052508080610702906116ad565b915050610486565b50828282955095509550505050909192565b60035481565b606080606060005b6000805490508110156109fc578580519060200120600082815481106107535761075261164f565b5b90600052602060002090600302016001016040516107719190611795565b60405180910390201480156107c5575084805190602001206000828154811061079d5761079c61164f565b5b90600052602060002090600302016000016040516107bb9190611795565b6040518091039020145b156109e957600081815481106107de576107dd61164f565b5b9060005260206000209060030201600101600082815481106108035761080261164f565b5b9060005260206000209060030201600001600083815481106108285761082761164f565b5b90600052602060002090600302016002018280546108459061161d565b80601f01602080910402602001604051908101604052809291908181526020018280546108719061161d565b80156108be5780601f10610893576101008083540402835291602001916108be565b820191906000526020600020905b8154815290600101906020018083116108a157829003601f168201915b505050505092508180546108d19061161d565b80601f01602080910402602001604051908101604052809291908181526020018280546108fd9061161d565b801561094a5780601f1061091f5761010080835404028352916020019161094a565b820191906000526020600020905b81548152906001019060200180831161092d57829003601f168201915b5050505050915080805461095d9061161d565b80601f01602080910402602001604051908101604052809291908181526020018280546109899061161d565b80156109d65780601f106109ab576101008083540402835291602001916109d6565b820191906000526020600020905b8154815290600101906020018083116109b957829003601f168201915b5050505050905093509350935050610a34565b80806109f4906116ad565b91505061072a565b506040518060200160405280600081525060405180602001604052806000815250604051806020016040528060008152509250925092505b9250925092565b6000604051806060016040528085815260200184815260200183815250905060008190806001815401808255809150506001900390600052602060002090600302016000909190919091506000820151816000019080519060200190610aa2929190610fd0565b506020820151816001019080519060200190610abf929190610fd0565b506040820151816002019080519060200190610adc929190610fd0565b50505080600184604051610af091906117e8565b90815260200160405180910390206000820151816000019080519060200190610b1a929190610fd0565b506020820151816001019080519060200190610b37929190610fd0565b506040820151816002019080519060200190610b54929190610fd0565b5090505080600283604051610b6991906117e8565b90815260200160405180910390206000820151816000019080519060200190610b93929190610fd0565b506020820151816001019080519060200190610bb0929190610fd0565b506040820151816002019080519060200190610bcd929190610fd0565b5090505082604051610bdf91906117e8565b60405180910390207f2b06130581e4fe3ed41edb003ed90fca90c2180e698d2b4685ae02c441f896698584604051610c189291906117ff565b60405180910390a250505050565b60008181548110610c3657600080fd5b9060005260206000209060030201600091509050806000018054610c599061161d565b80601f0160208091040260200160405190810160405280929190818152602001828054610c859061161d565b8015610cd25780601f10610ca757610100808354040283529160200191610cd2565b820191906000526020600020905b815481529060010190602001808311610cb557829003601f168201915b505050505090806001018054610ce79061161d565b80601f0160208091040260200160405190810160405280929190818152602001828054610d139061161d565b8015610d605780601f10610d3557610100808354040283529160200191610d60565b820191906000526020600020905b815481529060010190602001808311610d4357829003601f168201915b505050505090806002018054610d759061161d565b80601f0160208091040260200160405190810160405280929190818152602001828054610da19061161d565b8015610dee5780601f10610dc357610100808354040283529160200191610dee565b820191906000526020600020905b815481529060010190602001808311610dd157829003601f168201915b5050505050905083565b600181805160208101820180518482526020830160208501208183528095505050505050600091509050806000018054610e319061161d565b80601f0160208091040260200160405190810160405280929190818152602001828054610e5d9061161d565b8015610eaa5780601f10610e7f57610100808354040283529160200191610eaa565b820191906000526020600020905b815481529060010190602001808311610e8d57829003601f168201915b505050505090806001018054610ebf9061161d565b80601f0160208091040260200160405190810160405280929190818152602001828054610eeb9061161d565b8015610f385780601f10610f0d57610100808354040283529160200191610f38565b820191906000526020600020905b815481529060010190602001808311610f1b57829003601f168201915b505050505090806002018054610f4d9061161d565b80601f0160208091040260200160405190810160405280929190818152602001828054610f799061161d565b8015610fc65780601f10610f9b57610100808354040283529160200191610fc6565b820191906000526020600020905b815481529060010190602001808311610fa957829003601f168201915b5050505050905083565b828054610fdc9061161d565b90600052602060002090601f016020900481019282610ffe5760008555611045565b82601f1061101757805160ff1916838001178555611045565b82800160010185558215611045579182015b82811115611044578251825591602001919060010190611029565b5b5090506110529190611056565b5090565b5b8082111561106f576000816000905550600101611057565b5090565b6000604051905090565b600080fd5b600080fd5b600080fd5b600080fd5b6000601f19601f8301169050919050565b7f4e487b7100000000000000000000000000000000000000000000000000000000600052604160045260246000fd5b6110da82611091565b810181811067ffffffffffffffff821117156110f9576110f86110a2565b5b80604052505050565b600061110c611073565b905061111882826110d1565b919050565b600067ffffffffffffffff821115611138576111376110a2565b5b61114182611091565b9050602081019050919050565b82818337600083830152505050565b600061117061116b8461111d565b611102565b90508281526020810184848401111561118c5761118b61108c565b5b61119784828561114e565b509392505050565b600082601f8301126111b4576111b3611087565b5b81356111c484826020860161115d565b91505092915050565b6000602082840312156111e3576111e261107d565b5b600082013567ffffffffffffffff81111561120157611200611082565b5b61120d8482850161119f565b91505092915050565b600081519050919050565b600082825260208201905092915050565b60005b83811015611250578082015181840152602081019050611235565b8381111561125f576000848401525b50505050565b600061127082611216565b61127a8185611221565b935061128a818560208601611232565b61129381611091565b840191505092915050565b600060608201905081810360008301526112b88186611265565b905081810360208301526112cc8185611265565b905081810360408301526112e08184611265565b9050949350505050565b600081519050919050565b600082825260208201905092915050565b6000819050602082019050919050565b600082825260208201905092915050565b600061133282611216565b61133c8185611316565b935061134c818560208601611232565b61135581611091565b840191505092915050565b600061136c8383611327565b905092915050565b6000602082019050919050565b600061138c826112ea565b61139681856112f5565b9350836020820285016113a885611306565b8060005b858110156113e457848403895281516113c58582611360565b94506113d083611374565b925060208a019950506001810190506113ac565b50829750879550505050505092915050565b600060608201905081810360008301526114108186611381565b905081810360208301526114248185611381565b905081810360408301526114388184611381565b9050949350505050565b6000819050919050565b61145581611442565b82525050565b6000602082019050611470600083018461144c565b92915050565b6000806040838503121561148d5761148c61107d565b5b600083013567ffffffffffffffff8111156114ab576114aa611082565b5b6114b78582860161119f565b925050602083013567ffffffffffffffff8111156114d8576114d7611082565b5b6114e48582860161119f565b9150509250929050565b6000806000606084860312156115075761150661107d565b5b600084013567ffffffffffffffff81111561152557611524611082565b5b6115318682870161119f565b935050602084013567ffffffffffffffff81111561155257611551611082565b5b61155e8682870161119f565b925050604084013567ffffffffffffffff81111561157f5761157e611082565b5b61158b8682870161119f565b9150509250925092565b61159e81611442565b81146115a957600080fd5b50565b6000813590506115bb81611595565b92915050565b6000602082840312156115d7576115d661107d565b5b60006115e5848285016115ac565b91505092915050565b7f4e487b7100000000000000000000000000000000000000000000000000000000600052602260045260246000fd5b6000600282049050600182168061163557607f821691505b60208210811415611649576116486115ee565b5b50919050565b7f4e487b7100000000000000000000000000000000000000000000000000000000600052603260045260246000fd5b7f4e487b7100000000000000000000000000000000000000000000000000000000600052601160045260246000fd5b60006116b882611442565b91507fffffffffffffffffffffffffffffffffffffffffffffffffffffffffffffffff8214156116eb576116ea61167e565b5b600182019050919050565b600081905092915050565b60008190508160005260206000209050919050565b600081546117238161161d565b61172d81866116f6565b9450600182166000811461174857600181146117595761178c565b60ff1983168652818601935061178c565b61176285611701565b60005b8381101561178457815481890152600182019150602081019050611765565b838801955050505b50505092915050565b60006117a18284611716565b915081905092915050565b600081905092915050565b60006117c282611216565b6117cc81856117ac565b93506117dc818560208601611232565b80840191505092915050565b60006117f482846117b7565b915081905092915050565b600060408201905081810360008301526118198185611265565b9050818103602083015261182d8184611265565b9050939250505056fea264697066735822122073afb963fde54e3500329cf719e6ded021fc2ad8a7811ad701177c7905c84e1964736f6c63430008090033",
  "immutableReferences": {},
  "source": "pragma solidity ^0.8.9;\r\n\r\ncontract ApplicationRegistry {\r\n    struct Application {\r\n        string name; // Name of the application\r\n        string appId; // Application number (alphanumeric)\r\n        string cid; // Content ID\r\n    }\r\n\r\n    Application[] public applications;\r\n    mapping(string => Application) public applicationsByAppId;\r\n    mapping(string => Application) public applicationsByCid;\r\n    uint public nextId;\r\n\r\n    // Event for application creation\r\n    event ApplicationCreated(string indexed appId, string name, string cid);\r\n\r\n    constructor() {\r\n        nextId = 1;\r\n    }\r\n\r\n    function createApplication(string memory _name, string memory _appId, string memory _cid) public {\r\n        Application memory newApp = Application(_name, _appId, _cid);\r\n        applications.push(newApp);\r\n        applicationsByAppId[_appId] = newApp;\r\n        applicationsByCid[_cid] = newApp;\r\n\r\n        emit ApplicationCreated(_appId, _name, _cid);\r\n    }\r\n\r\nfunction getApplicationByAppIdAndName(string memory _appId, string memory _name) public view returns (string memory, string memory, string memory) {\r\n    // Search for the application in the array\r\n    for (uint i = 0; i < applications.length; i++) {\r\n        if (keccak256(bytes(applications[i].appId)) == keccak256(bytes(_appId)) && keccak256(bytes(applications[i].name)) == keccak256(bytes(_name))) {\r\n            return (applications[i].appId, applications[i].name, applications[i].cid);\r\n        }\r\n    }\r\n    // Return empty strings if application not found\r\n    return (\"\", \"\", \"\");\r\n}\r\n\r\n\r\n\r\n    // Function to get all applications\r\n    function getAllApplications() public view returns (string[] memory, string[] memory, string[] memory) {\r\n        string[] memory names = new string[](applications.length);\r\n        string[] memory appIds = new string[](applications.length);\r\n        string[] memory cids = new string[](applications.length);\r\n\r\n        for (uint i = 0; i < applications.length; i++) {\r\n            names[i] = applications[i].name;\r\n            appIds[i] = applications[i].appId;\r\n            cids[i] = applications[i].cid;\r\n        }\r\n\r\n        return (names, appIds, cids);\r\n    }\r\n}\r\n\r\n\r\n",
  "sourcePath": "C:\\Users\\Sammitha S Poojary\\Desktop\\document blockchain\\contracts\\ApplicationRegistry.sol",
  "compiler": {
    "name": "solc",
    "version": "0.8.9+commit.e5eed63a.Emscripten.clang"
  },
  "schemaVersion": "3.4.16",
  "updatedAt": "2024-03-09T06:44:04.522Z",
  "networkType": "ethereum",
  "devdoc": {
    "kind": "dev",
    "methods": {},
    "version": 1
  },
  "userdoc": {
    "kind": "user",
    "methods": {},
    "version": 1
  }
}